{
  "transactions": [
    {
      "hash": "0xdc3aad5c3666bf6fc194a6b037ae4b674952ba20494b374c20c1665cd1b78bbf",
      "transactionType": "CALL",
      "contractName": "CreatorTokenTransferValidator",
      "contractAddress": "0x721c0078c2328597ca70f5451fff5a7b38d4e947",
      "function": "setTransferSecurityLevelOfCollection(address,uint8,bool,bool,bool)",
      "arguments": [
        "0x522Ef76d6A4413e9249524C5F65f5d60B56De128",
        "3",
        "false",
        "false",
        "false"
      ],
      "transaction": {
        "from": "0xf2d22310905ead92c19c7ef0003c1ad38e129cb1",
        "to": "0x721c0078c2328597ca70f5451fff5a7b38d4e947",
        "gas": "0xe7b9",
        "value": "0x0",
        "input": "0x317e3e8d000000000000000000000000522ef76d6a4413e9249524c5f65f5d60b56de1280000000000000000000000000000000000000000000000000000000000000003000000000000000000000000000000000000000000000000000000000000000000000000000000000000000000000000000000000000000000000000000000000000000000000000000000000000000000000000000000000000000000000000",
        "nonce": "0x30",
        "chainId": "0xaa36a7"
      },
      "additionalContracts": [],
      "isFixedGasLimit": false
    },
    {
      "hash": "0x8cc2d4f252295b61d7ec46e299d1b41d0b6ffcff783db53aa93f6ae7c9ec2198",
      "transactionType": "CALL",
      "contractName": "CreatorTokenTransferValidator",
      "contractAddress": "0x721c0078c2328597ca70f5451fff5a7b38d4e947",
      "function": "createList(string)",
      "arguments": [
        "\"testListRoyalty\""
      ],
      "transaction": {
        "from": "0xf2d22310905ead92c19c7ef0003c1ad38e129cb1",
        "to": "0x721c0078c2328597ca70f5451fff5a7b38d4e947",
        "gas": "0x11eef",
        "value": "0x0",
        "input": "0xb8dcc68f0000000000000000000000000000000000000000000000000000000000000020000000000000000000000000000000000000000000000000000000000000000f746573744c697374526f79616c74790000000000000000000000000000000000",
        "nonce": "0x31",
        "chainId": "0xaa36a7"
      },
      "additionalContracts": [],
      "isFixedGasLimit": false
    },
    {
      "hash": "0xa187459ad73b5e6535457be87b1858cf4edacaedba8131b9f19358e421cfd320",
      "transactionType": "CALL",
      "contractName": "CreatorTokenTransferValidator",
      "contractAddress": "0x721c0078c2328597ca70f5451fff5a7b38d4e947",
      "function": "addAccountsToWhitelist(uint120,address[])",
      "arguments": [
        "19",
        "[0x00000000006c3852cbEf3e08E8dF289169EdE581, 0x1E0049783F008A0085193E00003D00cd54003c71]"
      ],
      "transaction": {
        "from": "0xf2d22310905ead92c19c7ef0003c1ad38e129cb1",
        "to": "0x721c0078c2328597ca70f5451fff5a7b38d4e947",
        "gas": "0x3ea38",
        "value": "0x0",
        "input": "0xa1cc5cc100000000000000000000000000000000000000000000000000000000000000130000000000000000000000000000000000000000000000000000000000000040000000000000000000000000000000000000000000000000000000000000000200000000000000000000000000000000006c3852cbef3e08e8df289169ede5810000000000000000000000001e0049783f008a0085193e00003d00cd54003c71",
        "nonce": "0x32",
        "chainId": "0xaa36a7"
      },
      "additionalContracts": [],
      "isFixedGasLimit": false
    },
    {
      "hash": "0x5d9df041360365ec78a84cabaad4b39d648f9ab6d9433d4025e3048366be7c8e",
      "transactionType": "CALL",
      "contractName": "CreatorTokenTransferValidator",
      "contractAddress": "0x721c0078c2328597ca70f5451fff5a7b38d4e947",
      "function": "applyListToCollection(address,uint120)",
      "arguments": [
        "0x522Ef76d6A4413e9249524C5F65f5d60B56De128",
        "19"
      ],
      "transaction": {
        "from": "0xf2d22310905ead92c19c7ef0003c1ad38e129cb1",
        "to": "0x721c0078c2328597ca70f5451fff5a7b38d4e947",
        "gas": "0xde1f",
        "value": "0x0",
        "input": "0xbf7bfd7e000000000000000000000000522ef76d6a4413e9249524c5f65f5d60b56de1280000000000000000000000000000000000000000000000000000000000000013",
        "nonce": "0x33",
        "chainId": "0xaa36a7"
      },
      "additionalContracts": [],
      "isFixedGasLimit": false
    }
  ],
  "receipts": [
    {
      "status": "0x1",
      "cumulativeGasUsed": "0x897fca",
      "logs": [
        {
          "address": "0x721c0078c2328597ca70f5451fff5a7b38d4e947",
          "topics": [
            "0xb39d8f1e6f05413a407e46fc950eb92e9f5b3d65a47c3f0bdc7a2741a6ec0f7d",
            "0x000000000000000000000000522ef76d6a4413e9249524c5f65f5d60b56de128"
          ],
          "data": "0x0000000000000000000000000000000000000000000000000000000000000003",
          "blockHash": "0x0befee6500371bd15b0aba4eb20a8931334c47a4cec7ec1edf2622036f81ef50",
          "blockNumber": "0x63f63a",
          "transactionHash": "0xdc3aad5c3666bf6fc194a6b037ae4b674952ba20494b374c20c1665cd1b78bbf",
          "transactionIndex": "0x3d",
          "logIndex": "0x4b",
          "removed": false
        },
        {
          "address": "0x721c0078c2328597ca70f5451fff5a7b38d4e947",
          "topics": [
            "0x9c615afab54584e53810beb24cced6ca36919dfc62bff2d4a0d244906c41c2ac",
            "0x000000000000000000000000522ef76d6a4413e9249524c5f65f5d60b56de128"
          ],
          "data": "0x00000000000000000000000000000000000000000000000000000000000000000000000000000000000000000000000000000000000000000000000000000000",
          "blockHash": "0x0befee6500371bd15b0aba4eb20a8931334c47a4cec7ec1edf2622036f81ef50",
          "blockNumber": "0x63f63a",
          "transactionHash": "0xdc3aad5c3666bf6fc194a6b037ae4b674952ba20494b374c20c1665cd1b78bbf",
          "transactionIndex": "0x3d",
          "logIndex": "0x4c",
          "removed": false
        },
        {
          "address": "0x721c0078c2328597ca70f5451fff5a7b38d4e947",
          "topics": [
            "0x9c6e8620d0004b9dd8b49560e2de8ced6f409f529cc23d0bb9e5a106d5c43242",
            "0x000000000000000000000000522ef76d6a4413e9249524c5f65f5d60b56de128"
          ],
          "data": "0x0000000000000000000000000000000000000000000000000000000000000000",
          "blockHash": "0x0befee6500371bd15b0aba4eb20a8931334c47a4cec7ec1edf2622036f81ef50",
          "blockNumber": "0x63f63a",
          "transactionHash": "0xdc3aad5c3666bf6fc194a6b037ae4b674952ba20494b374c20c1665cd1b78bbf",
          "transactionIndex": "0x3d",
          "logIndex": "0x4d",
          "removed": false
        }
      ],
      "logsBloom": "0x00000000000001000000000000000000000000000000000000000000000000000001000000001000000000000000000000000020000040000000000000000000000000000000000000000000000000000000000000000000000000000000000000000000000000000000001000000000000000000000000000000000000000000000000060000000000000000000000000004000000000000000000000000000000000000000000000000000008000000000000000200000000000000000000000100000000000000000000000000000000000000000000000000004000000000000000001000000000000000000000000000000000800000000000000000000",
      "type": "0x2",
      "transactionHash": "0xdc3aad5c3666bf6fc194a6b037ae4b674952ba20494b374c20c1665cd1b78bbf",
      "transactionIndex": "0x3d",
      "blockHash": "0x0befee6500371bd15b0aba4eb20a8931334c47a4cec7ec1edf2622036f81ef50",
      "blockNumber": "0x63f63a",
      "gasUsed": "0x9e72",
      "effectiveGasPrice": "0x128b3f285",
      "from": "0xf2d22310905ead92c19c7ef0003c1ad38e129cb1",
      "to": "0x721c0078c2328597ca70f5451fff5a7b38d4e947",
      "contractAddress": null
    },
    {
      "status": "0x1",
      "cumulativeGasUsed": "0x5f44cc",
      "logs": [
        {
          "address": "0x721c0078c2328597ca70f5451fff5a7b38d4e947",
          "topics": [
            "0x5cc365f89543268cb9f25c255f7f610e9147e733c589bc2732279575f125be14",
            "0x0000000000000000000000000000000000000000000000000000000000000013"
          ],
          "data": "0x0000000000000000000000000000000000000000000000000000000000000020000000000000000000000000000000000000000000000000000000000000000f746573744c697374526f79616c74790000000000000000000000000000000000",
          "blockHash": "0xe876e5ceed516e1d5c8dd399a3aa358e993be8154b6a158abf34a4ff846e7719",
          "blockNumber": "0x63f63b",
          "transactionHash": "0x8cc2d4f252295b61d7ec46e299d1b41d0b6ffcff783db53aa93f6ae7c9ec2198",
          "transactionIndex": "0x46",
          "logIndex": "0x3a",
          "removed": false
        },
        {
          "address": "0x721c0078c2328597ca70f5451fff5a7b38d4e947",
          "topics": [
            "0x9b0894203394c3cbb23140db7a23b224d3e18e0366e9f65bd9c8402650e27367",
            "0x0000000000000000000000000000000000000000000000000000000000000013",
            "0x000000000000000000000000f2d22310905ead92c19c7ef0003c1ad38e129cb1"
          ],
          "data": "0x",
          "blockHash": "0xe876e5ceed516e1d5c8dd399a3aa358e993be8154b6a158abf34a4ff846e7719",
          "blockNumber": "0x63f63b",
          "transactionHash": "0x8cc2d4f252295b61d7ec46e299d1b41d0b6ffcff783db53aa93f6ae7c9ec2198",
          "transactionIndex": "0x46",
          "logIndex": "0x3b",
          "removed": false
        }
      ],
      "logsBloom": "0x20000000000000001000000000800000000000010000000000000000000000000000000040000000000000000000000000000000000040100000000000000000000000000000000000000000800000000000000000000000000000000000000000000000000000000000000000000000000000000000000080000000000000000000000000000000000000000000000000004000000000000000000000000000000000000000000000000000000000000001008000200000000000000000000000000000000000000000000000000000000000000000000000000000000000000000000000000000000000000000000000002000000800000000000000000000",
      "type": "0x2",
      "transactionHash": "0x8cc2d4f252295b61d7ec46e299d1b41d0b6ffcff783db53aa93f6ae7c9ec2198",
      "transactionIndex": "0x46",
      "blockHash": "0xe876e5ceed516e1d5c8dd399a3aa358e993be8154b6a158abf34a4ff846e7719",
      "blockNumber": "0x63f63b",
      "gasUsed": "0xcfbd",
      "effectiveGasPrice": "0x123b5ed75",
      "from": "0xf2d22310905ead92c19c7ef0003c1ad38e129cb1",
      "to": "0x721c0078c2328597ca70f5451fff5a7b38d4e947",
      "contractAddress": null
    },
    {
      "status": "0x1",
      "cumulativeGasUsed": "0x1277562",
      "logs": [
        {
          "address": "0x721c0078c2328597ca70f5451fff5a7b38d4e947",
          "topics": [
            "0xda8f3bd170446760f0f965a9b52bf271cb9679b5e0a70059eff2d49425229d17",
            "0x0000000000000000000000000000000000000000000000000000000000000001",
            "0x0000000000000000000000000000000000000000000000000000000000000013",
            "0x00000000000000000000000000000000006c3852cbef3e08e8df289169ede581"
          ],
          "data": "0x",
          "blockHash": "0x40f3b42ebc7c35299eb8303475033fefa888dc53e2dbc9043663b934ee3e1d7d",
          "blockNumber": "0x63f63d",
          "transactionHash": "0xa187459ad73b5e6535457be87b1858cf4edacaedba8131b9f19358e421cfd320",
          "transactionIndex": "0x5c",
          "logIndex": "0xc2",
          "removed": false
        },
        {
          "address": "0x721c0078c2328597ca70f5451fff5a7b38d4e947",
          "topics": [
            "0xda8f3bd170446760f0f965a9b52bf271cb9679b5e0a70059eff2d49425229d17",
            "0x0000000000000000000000000000000000000000000000000000000000000001",
            "0x0000000000000000000000000000000000000000000000000000000000000013",
            "0x0000000000000000000000001e0049783f008a0085193e00003d00cd54003c71"
          ],
          "data": "0x",
          "blockHash": "0x40f3b42ebc7c35299eb8303475033fefa888dc53e2dbc9043663b934ee3e1d7d",
          "blockNumber": "0x63f63d",
          "transactionHash": "0xa187459ad73b5e6535457be87b1858cf4edacaedba8131b9f19358e421cfd320",
          "transactionIndex": "0x5c",
          "logIndex": "0xc3",
          "removed": false
        }
      ],
      "logsBloom": "0x20000000000000000000000000800000000000000000000000000000000000000000000040000000000000000000000000000000020040000000000000040000000000000000000220000000000000000000000000040800000000000000000000000000000000000000000000000000000000000000000000000000000000000000000000000000000000000000000000004000000000000000000000000000000001000000400000000000000100000000000000000000000000000000000001000000000000000000000000000200000000000000000000000000000040000000000000000000000000000000000000000000000800000000000000000000",
      "type": "0x2",
      "transactionHash": "0xa187459ad73b5e6535457be87b1858cf4edacaedba8131b9f19358e421cfd320",
      "transactionIndex": "0x5c",
      "blockHash": "0x40f3b42ebc7c35299eb8303475033fefa888dc53e2dbc9043663b934ee3e1d7d",
      "blockNumber": "0x63f63d",
      "gasUsed": "0x2d597",
      "effectiveGasPrice": "0x1319b4bae",
      "from": "0xf2d22310905ead92c19c7ef0003c1ad38e129cb1",
      "to": "0x721c0078c2328597ca70f5451fff5a7b38d4e947",
      "contractAddress": null
    },
    {
      "status": "0x1",
      "cumulativeGasUsed": "0x797c9e",
      "logs": [
        {
          "address": "0x721c0078c2328597ca70f5451fff5a7b38d4e947",
          "topics": [
            "0xa66ff5557b7dc1562bb5e83306e15b513a25aa7537369bce38fc29c20847a791",
            "0x000000000000000000000000522ef76d6a4413e9249524c5f65f5d60b56de128",
            "0x0000000000000000000000000000000000000000000000000000000000000013"
          ],
          "data": "0x",
          "blockHash": "0x0c09d4080699454497a98269a55b9211f9f6bfe713a1c19c20394c4d90731f6e",
          "blockNumber": "0x63f63e",
          "transactionHash": "0x5d9df041360365ec78a84cabaad4b39d648f9ab6d9433d4025e3048366be7c8e",
          "transactionIndex": "0x3a",
          "logIndex": "0x7b",
          "removed": false
        }
      ],
      "logsBloom": "0x20000000000000000000000000800000000000000000000000000000000000000000000040000000000000000000000000000001000040000000000000000000000000000000000000000000000000000000000000000000000000000000000000000000000000000000000000100000000000000000000000000000000000000000000020000000000000000000000000004000000000000000000000000000000000000040000000000000000000000000000000000000000000000000000000100000000000000000000000000000000000000000000000000004000000000000000000000000000000000000000000000000000800000000000000000000",
      "type": "0x2",
      "transactionHash": "0x5d9df041360365ec78a84cabaad4b39d648f9ab6d9433d4025e3048366be7c8e",
      "transactionIndex": "0x3a",
      "blockHash": "0x0c09d4080699454497a98269a55b9211f9f6bfe713a1c19c20394c4d90731f6e",
      "blockNumber": "0x63f63e",
      "gasUsed": "0x97e1",
      "effectiveGasPrice": "0x141f85624",
      "from": "0xf2d22310905ead92c19c7ef0003c1ad38e129cb1",
      "to": "0x721c0078c2328597ca70f5451fff5a7b38d4e947",
      "contractAddress": null
    }
  ],
  "libraries": [],
  "pending": [],
  "returns": {},
  "timestamp": 1724351223,
  "chain": 11155111,
  "commit": "f8652aa"
}